:020000040800F2
:10000000A0220020D50000081D8B0008856700088D
:1000100000000000000000000000000000000000E0
:1000200000000000000000000000000017B50008FC
:100030000000000000000000CD980008C9D90008A9
:10004000E7000008E7000008EB9F0008E700000851
:10005000E7000008952C0008A52C0008B52C000826
:10006000E7000008E7000008E7000008C12B0008CF
:10007000E7000008E7000008E7000008E7000008C4
:10008000E7000008E7000008E700000800000000A3
:10009000E7000008E7000008E7000008E7000008A4
:1000A000E7000008E7000008E7000008F9E20008A0
:1000B000E7000008859F000800000000E700000836
:1000C0000348854600F072FF0048004751210108AF
:1000D000A02200200448804704480047FEE7FEE7CE
:1000E000FEE7FEE7FEE7FEE75DDA0008C100000874
:1000F00030B50B46014600202022012409E00D46C0
:10010000D5409D4205D31D469540491B2546954047
:1001100040191546521E002DF1DC30BD70B500248B
:100120002546002801DA01244042002901DA012590
:100130004942FFF7DDFFAC4200D04042002C00D026
:10014000494270BDF0B51FB40646002082B0054696
:100150004024019100901BE0019922460F46304651
:1001600000F038FD049A059B801A994110D310467F
:100170001946224600F01EFD361A8F41019722468D
:1001800001200021009F00F015FD38184D4100901E
:100190002046641E0028DFDC019B00982946324679
:1001A00007B0F0BDF0B51FB486B0002000900190FC
:1001B00002900698069980B204900798090C0204F0
:1001C0000014114307900027089D099806913E46A8
:1001D0003C4603900398A9B20204000C03900498D3
:1001E0002D0C154348430021224600F0E3FCC719BB
:1001F000714110340E46402CECDB3846029A00F078
:10020000D9FC009A019B80180090594102980191F5
:10021000103002904028CCDB00980BB0F0BD10B538
:100220000F21C0B2490200F0F9FC10BD03460B4398
:100230009B0703D009E008C9121F08C0042AFAD29C
:1002400003E00B780370401C491C521EF9D2704722
:10025000D2B201E00270401C491EFBD2704700225E
:10026000F6E710B513460A4604461946FFF7F0FFB5
:10027000204610BD10B5044605E00B780370401C05
:10028000002B00D0491C521EF7D2204610BD421C44
:100290000178401C0029FBD1801A704710B500225C
:1002A00000E0521C835C8C5CA34201D1002BF8D18E
:1002B000D8B2E1B2401A10BD03460A780270401C61
:1002C000491C002AF9D11846704730B50546002070
:1002D000034600E05B1C934205D2EC5CC85C201A2C
:1002E00001D1002CF6D130BD0321001D401E037842
:1002F00012021A43491EF9D5104670470FB400B5D3
:100300008DB009900B9010A900200091C0430A9075
:1003100000200C9006480690064807906A4609A8F7
:100320000F9900F0A3FC0DB008BC04B01847000002
:100330008D0C0008AD0C0008FFB50027FF4383B00B
:1003400000205C6801909E681D46A9697F1C049886
:1003500088470090296A88470028F6D10098401CF9
:100360000CD0032040028443002E19DD600614D512
:1003700000982B2809D02D280FD103E00020C0437E
:1003800007B0F0BD012080020443A9697F1C0498D6
:100390008847761E0090002E02DD0098302803D09A
:1003A0000598002825D035E0012040020443A969C2
:1003B000761E7F1C049888470090002E03DD782865
:1003C00005D0582803D00598002810D022E00598C1
:1003D000002801D010281DD1012040028443A969C2
:1003E000761E7F1C049888470090102002E00820A9
:1003F00000E00A2005900DE0012149020C43059A16
:100400000199761E514308180190A9697F1C049830
:1004100088470090002E05DD0599009800F010FC3B
:100420000028E9DAE96904988847A00502D4012088
:10043000C043A5E7E00722D1600611D56005019809
:1004400000D5404229680A1D2A600968220501D5A5
:10045000087014E0220701D5088010E008600EE063
:100460002868011D29600068210502D501990170E5
:1004700005E02107019901D5018000E001603846BF
:100480007EE7F8B502464A40D40F42004B005208BE
:100490005B089A4202D20246084611464A0023D01F
:1004A000C30D4A00DDB2120EAD1A202D35DA490215
:1004B0000126490AF6058A19002C00D05242202153
:1004C0004F1B1146B9402A411018C20D9A4221D043
:1004D000002C17D0012D08DCDA05801AD20F801904
:1004E000D207DBB200F0FCFBF8BDDA05801A01236D
:1004F00040001B06C01880185A428018CA0F1043CB
:10050000490007E04908C2071143DA05801A80193B
:100510004008801800F0DCFBF8BD61000122511A90
:10052000001BF7E70122D2075140AAE70122D207B8
:100530005040A6E7024670B54A40D30FDB074000A3
:100540002DD04A002AD0010E140E00021202091901
:10055000400A520A8418E50104465443000A120A6C
:100560002E045043A4194219200CC543AA18120C9A
:100570000125AD03521C521912047F39240400D006
:10058000521C104301D44000491EC2B20C06C009DF
:100590002018401C4008802A02D003E0002070BDD3
:1005A00040084000002900DA0020184370BD70B5F3
:1005B00002464A40D50F40004A00ED074008520865
:1005C000002814D0002A12D0C40DD30D41020120FE
:1005D000C0055202490A520AE41A091812187D3459
:1005E000914201D3641C00E04900002C01DA002094
:1005F00070BD0023914201D3891A0343400849008A
:100600000028F7D100290AD0914202D10121C9075F
:1006100005E0914201D2012101E00121C943E00539
:10062000C018401900F054FB70BD420005D04200D4
:10063000120E52428A4201DB00207047C905081899
:1006400070470000F0B507460846584087B0C00F15
:10065000049048000E46590040084908BC1A8841D9
:1006600005D2384631461E4617460B46024658000C
:10067000400810434CD0300D039040055900400D08
:10068000490D0590401A0290402872DA18030121A2
:10069000000B09050843019004980092002805D03A
:1006A0000199524200208841009201900298402115
:1006B0000A1A0199009800F07DFA05460C466B462F
:1006C00007CB00F098FAC0197141039A0E0D002370
:1006D000D71756401A467A40164344D0049A002A47
:1006E0002DD0029A012A039A15DC1205C01A9141F5
:1006F00001263605001C7141D20F059ED2070093DA
:10070000019202962A46234600F04FFB07B0F0BD47
:1007100038463146FAE71605224A0F46B218C01A83
:10072000B74101210905001C4F4100187F411146C6
:1007300018187941E20F10436D19644113E0E20784
:100740006D0815436408C2071443039A0126120575
:10075000C01A91413605001C7141CE074008304354
:100760004908C01851412A46234600F011FBCDE745
:10077000FFE7049801224000C117121A00238B41A1
:1007800004983146C417381AA141EEE730B4012469
:10079000E407634030BC55E730B40124E40761400E
:1007A00030BC4FE70000E0FFF0B51FB488B00B99F4
:1007B0000998002448400999C00F49004908099147
:1007C000C0070B990090490049080B9109990898B6
:1007D000A64608431CD00B990A98084318D00998DC
:1007E00001244000420D4800410D099824050003F2
:1007F000000B204309900B980003000B20430B9043
:1008000050181C494018002201901446104605E07B
:10081000002001460DB0F0BD032801DA034600E0D8
:1008200003239C46C11A0AAE0AE05F0008ADED5BE7
:100830004F00F75B7D430027AA187C41491C5B1ED3
:100840006145F2DD410004AB5A522104120C0A4307
:10085000240C401C0828DFDB0198029000997046A8
:1008600001910090059B049A0799069800F09DFA63
:10087000D0E700000DFCFFFFF0B50C465C4085B0F2
:10088000E40FE40703944C000026640859009446E2
:10089000490802460296224321D062460A431ED0EE
:1008A0006200570D4A000E032303550D0124024632
:1008B0002C492405781B1B0B360B40182343264379
:1008C000614600901C46501AB44103D30098401C66
:1008D000009002E0921800985B41002803DA0020A3
:1008E000014605B0F0BD00200121090507468646F6
:1008F00011E064461D46141BB54106D36546521BE4
:10090000B341744607430C43A646CD074008490847
:10091000284392185B4105460D43EAD1104618431F
:1009200013D06046194650407140084306D06046D7
:10093000101AB34106D20122002306E0002201234F
:10094000DB0702E00122D2435310009874460105F0
:10095000381C6141029C039D0019694100F018FA9E
:10096000BFE70000FD03000070B54B005B080343C8
:100970000BD04B005C0D002633466542B341D417C3
:10098000AD1AA34102DB0020014670BD12053018EC
:10099000514170BDC217C10F504010B54018CA0771
:1009A0009623002100F09CF910BD10B5002296237B
:1009B000114600F095F910BD0EB5C217C10F504099
:1009C000CA0740180021054B0293019200910A4684
:1009D0000B4600F0EAF903B000BD0000330400004C
:1009E0000EB505490291002100910A460B4601917E
:1009F00000F0DBF903B000BD33040000C20F41007A
:100A000040020123400ADB05D207090EC0187F29E6
:100A100001DA00207047962903DC9623591AC84052
:100A200001E096398840002AF4D0404270474100E6
:100A300040020122400AD205090E80187F2901DAFE
:100A400000207047962903DC9622511AC84070474F
:100A5000963988407047000070B5CD0F4A000903F1
:100A60000123090B1B0519430B4BED070024520D05
:100A70009A4201DA002070BD074B34339A4203DCFE
:100A80009A1A00F0A7F802E00449511888402C4354
:100A9000F1D0404270BD0000FF030000CDFBFFFF1E
:100AA0004A0009030123090B1B051943094B10B523
:100AB000520D9A4201DA002010BD064B34339A429F
:100AC00003DC9A1A00F086F810BD034951188840DB
:100AD00010BD0000FF030000CDFBFFFFC20FD207D7
:100AE000400040080BD0C10D0723DB01C9184002AC
:100AF0000905400A1143C20840071143704700200E
:100B00000146704710B5002904DB0124E407404288
:100B10008C412146002B04DB1C460123DB0752429B
:100B2000A3418B4200D1824210BD000010B50029C4
:100B300004DB0124E40740428C412146002B04DB06
:100B40001C460123DB075242A341994200D1904247
:100B500010BD0000CB0FDB07490010B54908024665
:100B60000A4307D00A0D07240903E401090B121BED
:100B7000002A01DC002010BDC900440F0C43C10055
:100B8000E018D205801800F0A3F810BD0122D207AA
:100B9000002800DB101A002900DB511A814270473F
:100BA0000122D207002800DB101A002900DB511AAD
:100BB0008842704710B5202A04DB0146203A914054
:100BC000002010BD914020239C1A0346E3401943A6
:100BD000904010BD10B5202A04DB0846203AD040D2
:100BE000002110BD0B46D340D0402024A21A9140D2
:100BF0000843194610BD10B5202A06DBCB1708465E
:100C0000203A1041C1170B4306E00B461341D04078
:100C10002024A21A91400843194610BD7F2801D90B
:100C2000002207E0054B42089A5CC00700D1120978
:100C30001207120F012090400840704778530108B6
:100C40003A2800D23038202302469A43412A01D361
:100C500010463738884201D30020C0437047000057
:100C600002681378511801601846704710B5D160BA
:100C7000044951610449116200211161114600F0DB
:100C8000A7F910BD610C00081F0200084268002A85
:100C900008D001680B78491C002B03D0521E06C0F7
:100CA000184670470121C160881E70474268002ABB
:100CB0000BD0C3680168002B07D183688B4204D036
:100CC000491E521C06C0002070470020C0437047D8
:100CD000002904DA401C490001D140084000704757
:100CE00070B40024050C05D11024000402D10029A1
:100CF00021D01124050E01D100020834050F01D1C5
:100D00000001241D850F01D18000A41C002801DBF7
:100D10004000641C002908D020252E1B0D46F540FC
:100D2000A14000D001212943084301061B1B000AF2
:100D3000DB1D02D5002070BC7047DB051818801839
:100D40000029F8DA401C4900F5D170BC4008400089
:100D5000704710B541000DD04100090E962909DCFD
:100D60007E290ADC07DB410205D0C00F7F21C007C6
:100D7000C905401810BD002010BD9622541A20212C
:100D80000A1B01469140E040FFF7A2FFA04010BDC2
:100D900010B5002B08DA0024401C614192185B4119
:100DA0001A4301D14008400010BDF0B51FB482B015
:100DB00005460C0003D008460DF038FB02E00DF0AC
:100DC00035FB20300246009021462846FFF7F2FE10
:100DD000049B059A04460F4618431143084314D058
:100DE000184610431BD0009840210A1A184605994E
:100DF000FFF7F0FE05460E46009A05990498FFF7A6
:100E0000D9FE084305D0012004E02046394607B04A
:100E1000F0BD0020C11705430E432C433743009912
:100E20000E986305401A7905E40A00220C43FD0A76
:100E30000A3002D500200146E9E701051019694191
:100E40000C9C0D9D00196941FFF7A2FFDFE7FEB57D
:100E500000231A461B1A8A4103DB0020014603B017
:100E6000F0BD4A000D0301212D0B0905520D0D4364
:100E7000D10702D100186D41521E5110FF31FF31D0
:100E80000131002704463E4638460097019102464C
:100E9000012100200905FFF79DFEC3197141F818D3
:100EA000324684468E464A4161462846611A904140
:100EB00004D36046241A954176461F4624190098AB
:100EC0006D41401C00903428E1DDF9193046704135
:100ED000091BA84103D20022D243134601E000229D
:100EE000134601980105381C7141FFF751FFB6E721
:100EF000F8B50546480040080C46284304D0600079
:100F0000184A400D904201DD2846F8BD1549353993
:100F1000884210DC88420BDB290D2003084329039B
:100F2000014305D0E00F1049C00741180020F8BD6B
:100F300000200146F8BD161A4020821B2846214693
:100F4000FFF738FE07460091284621463246FFF754
:100F500041FE3A46009BFFF71BFF3246FFF72AFE91
:100F6000F8BD0000330400000000F03F4A00090310
:100F70000123090B1B0519430A4B10B5520D9A4268
:100F800002DA0020014610BD064B34339A4203DCDE
:100F90009A1AFFF71FFE10BD034BD218FFF70AFE87
:100FA00010BD0000FF030000CDFBFFFF064C012534
:100FB000064E05E0E36807CC2B430C3C9847103401
:100FC000B442F7D3FFF780F8CC630108EC63010863
:100FD000F3B58DB000200A9001200B900026084642
:100FE0000C300C4609906269012109989047051E52
:100FF0002ED0252D2DD0216A8847002818D062696F
:10100000012109989047216A88470028F7D1411E9D
:1010100062690998904700E0761CA1690D9888479D
:10102000216A88470028F7D1E1690D988847DAE7F7
:10103000A1690D9888470746A84201D1761CD2E7DE
:10104000E1690D9888477F1C02D10A98002877D063
:1010500049E1002762693D463946099890472A28A8
:101060000CD16269012109989047012506E00A2107
:101070004F433F18303FEBD41020054362690121F4
:1010800009989047014630390A2903D29B498F427B
:10109000DEDCECE7E90600D4994F6C280AD04C2836
:1010A00010D0682824D06A282ED074280CD07A2832
:1010B0000AD00DE062690121099890476C2823D07D
:1010C00004211CE020200543626901210998904712
:1010D000A760656065284FD026DC582839D01ADC17
:1010E000452849D012DC252834D04128B0D143E02E
:1010F0006269012109989047682802D008210D43B0
:10110000E6E70120C002DEE70220DCE7462833D014
:1011100047282CD130E05B2870D061282CD0632880
:101120006CD0642823D161E06F284FD009DC662899
:1011300022D0672820D0692826D06E2817D12EE02B
:10114000CDE070284DD073286FD075284ED0782808
:101150000DD154E0A1690D9888470546252800D196
:101160006CE7E1690D9888476D1C00D16DE7BAE026
:101170000A224CE00A2252E0012023466A46C0437C
:101180000D99C046C046A3E0284640210843606050
:10119000A807234601D5002239E000223FE0E807F6
:1011A00000D020E72068011D21600068290501D5D5
:1011B000067018E7290701D5068014E7A90703D5AB
:1011C000F117066041600EE706600CE728464021F3
:1011D00008436060A807234601D5082217E00822CB
:1011E0001DE0484928460840606016E02846402136
:1011F00008436060A8072346BCD5B9E715E0284638
:10120000402108436060A80707D52346102201202B
:10121000C0430D99C046C0465AE023461022012023
:10122000C0430D99FFF788F852E000210C910B465E
:101230000091632802D05B2807D043E0E80601D480
:101240000120A060012000903CE062690121099822
:1012500090475E2805D101200C90014662690998EB
:1012600090472169002906D10B4601AA8F00491C2D
:10127000D3510829FADB002835D0216900290ED185
:10128000C117C90E09184A11930001AA9A184909F1
:101290004901411A012013688840034313606269C1
:1012A0000121099890475D28E5D10C98002808D0C5
:1012B000002001AB81005A58401CD2435A500828E4
:1012C000F8DB01AB01202246C0430D99C046C04661
:1012D00000280ADA401C06D10B98002803D0002011
:1012E000C0430FB0F0BD0A98FBE7E90702D10A99A5
:1012F000491C0A91361800200B9074E6CCCCCC0C1B
:10130000FFFFFF7FF1F7FFFF70B58C180578401CD9
:101310006B075B0F01D10378401C2A1106D10278BC
:10132000401C03E006780E70401C491C5B1EF9D17E
:101330002B0705D40023521E0DD40B70491CFAE76D
:101340000378401CCB1A921C03E01D780D70491CD9
:101350005B1C521EF9D5A142D8D3002070BD0000FD
:1013600038B50446064805490068FEF7C1FE6043EB
:1013700000E0401E00900028FBD138BD40420F0025
:1013800074010020F8B50446006881688907890F58
:10139000012902D10168C90722D18168114A1026AA
:1013A0001140012500290ED1816829438160012067
:1013B000FFF7D6FF03F006F907460CE003F002F949
:1013C000C01B0A2807D9A06D3043A065E06D2843F3
:1013D000E0650120F8BD20680068C043C007EDD17A
:1013E0000020F8BD17000080F0B589B00C46074614
:1013F00010220021684610F04BFF6946224608463D
:101400000EF015F96846007887260106684600291F
:101410000FDA00214318425C5B785200DB091A4363
:101420004254491C0F29F5DBC17B0246490071403B
:101430000DE000214318425C5B785200DB091A433F
:101440004254491C0F29F5DBC17B02464900D17388
:10145000E21DF9325169102912D0017809061BD515
:1014600000214518435C6D785B00ED092B43435424
:10147000491C0F29F5DBC17B03464900714019E087
:1014800000216218FF3201325378455C491C6B40E1
:1014900053701029F5DB26E000214518435C6D7878
:1014A0005B00ED092B434354491C0F29F5DBC17B3D
:1014B00003464900D973E11D55698023FA316B5405
:1014C000002500E05D5453695B1C5361102BF9D378
:1014D00000216218FF3201325378455C491C6B4091
:1014E00053701029F5DB002162181046FF32E030FE
:1014F0000132437C5278491C534043741029F3DB7A
:1015000021461022F13104A810F0AAFE22463946E5
:1015100004A80EF08CF810220021684610F0B8FEE6
:1015200009B0F0BD10B5044610220021F13010F0D2
:10153000AFFEFF20002115300151F022204610F0AF
:10154000A7FE10BD0B4610B50246102118460EF03E
:1015500099F810BDF0B50446FF308BB00F4601304E
:101560000890E11D4069FA31009110391546079144
:10157000002843D010210E1AAE4200D3164600991F
:10158000B2B24018394610F06BFE089808994069CD
:101590008019486110283AD3B54238D0002162182A
:1015A0001046FF32E0300132437C5278491C5340F0
:1015B00043741029F3DB0799224608460EF037F8EA
:1015C000BF19AD1B1AE000202118E0314A7C3B5CBA
:1015D000401C5A404A741028F6DB102202A80799D2
:1015E00010F03EFE02A9224608460EF020F8102216
:1015F00002A9079810F034FE103D1037102DE2D8E4
:10160000AAB23946009810F02BFE089845610BB03D
:10161000F0BD0000FFB5FF49A1B00A7BC81DF9303D
:101620002D9E2E9D012A10D100220A7303662A994D
:1016300041662B998166219941652299816523999B
:10164000C1652C9906674567C166F34C1846216E43
:10165000FEF717FF0021C943FEF7E7FF0746616E5B
:101660002A98FEF70EFF0021C943FEF7DEFF2A90FD
:10167000A16E2B98FEF705FF0021C943FEF7D5FFA9
:101680002B90616D00912198FEF7FBFE0021C9436C
:10169000FEF7CBFF0099FEF7F4FE0021C943FEF7E9
:1016A000C4FF0099FEF7EDFE0021C943FEF7BDFF20
:1016B0002190E16E00912C98FEF7E3FE0021C943D2
:1016C000FEF7B3FF0099FEF7DCFE0021C943FEF7E9
:1016D000ACFF0099FEF7D5FE0021C943FEF7A5FF38
:1016E0002C9027662A9860662B98A06621986065E2
:1016F0002298A0652398E0652C9826676567E066C8
:10170000803CA16B03910846FEF714FF1D90E16B2E
:1017100002910398FEF70EFF0E90216C0191039841
:10172000FEF708FF0D90616C03980C46FEF702FF70
:101730000C9002990846FEF7FDFE0B900199029865
:10174000FEF7F8FE0A9021460298FEF7F3FE019993
:1017500009900846FEF7EEFE089021460198FEF734
:10176000E9FE214607900846FEF7E4FE2B99069015
:101770000846FEF7DFFE2A9900900846FEF7DAFEDB
:10178000044639460846FEF7D5FE2146FEF779FEA7
:101790000099FEF776FE0FF0C5FF04460146384675
:1017A000FEF7C8FE249021462A98FEF7C3FE2A9031
:1017B00021462B98FEF7BEFE29462B900846FEF7E1
:1017C000B9FE074631460846FEF7B4FE2C9904469A
:1017D0000846FEF7AFFE2146FEF753FE3946FEF7F8
:1017E00050FE0FF09FFF044601462C98FEF7A2FE24
:1017F0002C9021463046FEF79DFE2D90214628462E
:10180000FEF798FE2E900D990998FEF73AFE0446D1
:101810001F9001212E98FEF708FF1C9021461B9077
:10182000FEF788FEFFF75AF919911A900C990A9859
:10183000FEF778FE04461E9001212D98FEF7F5FE76
:10184000189021461790FEF775FEFFF747F90646F8
:1018500015910698FFF742F905460C460591089840
:10186000FFF73CF900226D4B03910290FEF794FFC5
:1018700023462A46FEF78AFF04460F460191009050
:1018800001212C98FEF7D1FE12901190FFF726F956
:1018900022463B46FEF788FF3246159BFEF7D2FEF6
:1018A000199B1A9AFEF7CEFEFFF754F913900E9982
:1018B0000798FEF737FE01461B98FEF73BFEFFF741
:1018C0000DF904460E46059F0B98FFF707F9002215
:1018D000524BFEF761FF2A463B4605910490FEF706
:1018E00055FF05460F461798FFF7F8F83B462A467E
:1018F000FEF75AFF05460F460C990A98FEF7C1FD00
:1019000001461198FEF716FEFFF7E8F83B462A4617
:10191000FEF798FE22463346FEF794FEFFF71AF9CB
:101920000746039B029A05990498FEF72FFF044689
:101930000D4602911C98FFF7D1F82B462246FEF780
:1019400033FF05460E460E990798FEF79AFD0146AD
:101950000E901898FEF7EEFD05900D990998FEF788
:10196000E1FD01460D901298FEF7E4FD0599FEF7A2
:1019700088FDFFF7B3F82A463346FEF763FEFFF70C
:10198000E9F8054639460846FEF7D4FD13990646A0
:101990000846FEF7CFFD3146FEF773FDFFF79EF8D0
:1019A00012F076F9FFF7D6F80C90059501210D9805
:1019B000FEF73BFE074601210E98FEF736FE06466F
:1019C0000B991D98FEF7AEFD0899FEF7ABFD069941
:1019D000FEF757FD05460D98049001210598FEF786
:1019E00024FE0B900499FEF7A5FDFFF777F805910B
:1019F00004900098089001210C98FEF716FE0C90B8
:101A0000FFF76CF8019B089AFEF7CEFE059B049A3F
:101A100006E0000088010020880200200000E03F6E
:101A2000FEF710FEFFF796F805900E990B98FEF75B
:101A300081FD00901E990C98FEF77CFD0099FEF741
:101A400020FD0299069000940C460B98FFF746F88B
:101A50002346009AFEF7A8FE044600911F990C98B1
:101A6000FEF768FDFFF73AF82246009BFEF7EAFD15
:101A7000FFF770F80446FE480761466185610699E4
:101A80002E98FEF757FD019021462D98FEF752FD46
:101A90000199FEF747FD029031462B98FEF74AFD6B
:101AA000009029462A98FEF745FD0099FEF73AFD79
:101AB0000299FEF7E6FC049021462C98FEF73AFDC9
:101AC000044605992E98FEF735FD2146FEF72AFDBE
:101AD000044629462498FEF72DFD054639462B98E5
:101AE000FEF728FD2946FEF71DFD2146FEF7C9FC3D
:101AF000089005992D98FEF71DFD044606992C982F
:101B0000FEF718FD2146FEF70DFD044639462A98DA
:101B1000FEF710FD054631462498FEF70BFD2946D9
:101B2000FEF700FD2146FEF7ACFC0590D149049874
:101B3000FEF700FDD04E3146FEF7FCFCCC4CA16C0C
:101B4000FEF79FFC0546A064CA490898FEF7F2FC20
:101B50003146FEF7EFFCE16CFEF793FC0746E064CC
:101B6000C4490598FEF7E6FC3146FEF7E3FC216D1B
:101B7000FEF787FC06462065C0490498FEF7DAFCAC
:101B80002199FEF77EFC2946FEF77BFC0546BB4902
:101B90000898FEF7CFFC2299FEF773FC3946FEF752
:101BA00070FC2290B5490598FEF7C4FC2399FEF716
:101BB00068FC3146FEF765FC2390616C0391099146
:101BC000FEF7B8FC216C0746029105912298FEF7BA
:101BD000B1FC06460120E16BC00768400191089105
:101BE000FEF7A8FC3146FEF79DFC3946FEF79AFC4D
:101BF0000021C943FEF719FDE06507900C90099993
:101C00002298FEF797FC064605992398FEF792FC6A
:101C1000A16B0746009128460691FEF78BFC3946DA
:101C2000FEF72FFC3146FEF77DFC0021C943FEF78D
:101C3000FCFC206604900D9028460999FEF77AFC7A
:101C4000074608992398FEF775FC064606992298E0
:101C5000FEF770FC3146FEF765FC3946FEF711FCD5
:101C60000021C943FEF7E1FC60660A90074628465A
:101C70000599FEF75FFC0B9008992298FEF75AFC35
:101C8000064606992398FEF755FC3146FEF7F9FB08
:101C90000B99FEF747FC0021C943FEF7C6FCA0667E
:101CA00077490B90FEF746FC0999FEF7EAFB0646DA
:101CB000179073482399FEF735FC31461090FEF7D4
:101CC00039FC09906E493846FEF734FC0599FEF759
:101CD000D8FB189006466A482299FEF723FC314645
:101CE0001590FEF727FC074665490D98FEF722FC84
:101CF0000899FEF7C6FB06461A9061492846FEF78A
:101D000015FC31461190FEF715FC06465C490C980F
:101D1000FEF710FC0699FEF7B4FB59491B90FEF73D
:101D200009FC3146FEF7ADFB3946FEF7AAFB0999DF
:101D3000FEF7A7FB0021C943FEF777FCE066199088
:101D400017991598FEF7F6FB05904D49189E2398B4
:101D5000FEF797FB0C9031461490FEF7EBFB0690D4
:101D600047491A98FEF7E6FB0746454928461B9E59
:101D7000FEF787FB0D9031460890FEF7DBFB3946F6
:101D8000FEF77FFB0699FEF77CFB0599FEF779FBD2
:101D90000021C943FEF749FC20670F900690179970
:101DA0000898FEF7C7FB139035491898FEF7C2FB59
:101DB00009901A991098FEF7BDFB074630491B9E03
:101DC0002298FEF75EFB059031461290FEF7B2FBBB
:101DD0003946FEF756FB0999FEF753FB1399FEF7B8
:101DE00050FB0021C943FEF720FC60670E9008906D
:101DF00023491798FEF79EFB074618991198FEF79E
:101E000099FB13901A991298FEF794FB06461B99BA
:101E10001498FEF78FFB3146FEF733FB1399FEF75C
:101E200030FB3946FEF72DFB0021C943FEF7FDFBD1
:101E3000A06713490990FEF77DFB0399FEF721FB8C
:101E4000014613901098FEF775FB07460C49089859
:101E5000FEF770FB0299FEF714FB014614901598EB
:101E6000FEF768FB089006490698FEF763FB09E059
:101E7000080200200AD7A33C52491D3C0000204222
:101E800052499D3B0199FEF7FCFA014617901198C3
:101E9000FEF750FB0646FE491998FEF74BFB0099EA
:101EA000FEF7EFFAFA491690FEF744FB3146FEF7CB
:101EB000E8FA0899FEF7E5FA3946FEF7E2FA00215A
:101EC000C943FEF7B2FBE067189013991598FEF727
:101ED00031FB074614990C98FEF72CFB0646EC499B
:101EE0001798FEF727FB044616990D98FEF722FB7C
:101EF0002146FEF7C6FA3146FEF7C3FA3946FEF729
:101F0000C0FA0021C943FEF790FBE24C074620606F
:101F1000089013990D98FEF70DFB0D90DC4914986D
:101F2000FEF708FB129017991098FEF703FB064680
:101F300016990598FEF7FEFA3146FEF7A2FA1299B5
:101F4000FEF79FFA0D99FEF79CFA0021C943FEF7B0
:101F50006CFB60600D901290CD491398FEF7EAFA81
:101F6000109014991198FEF7E5FA119017990598B9
:101F7000FEF7E0FA064616990C98FEF7DBFA3146B2
:101F8000FEF77FFA1199FEF77CFA1099FEF779FABD
:101F90000021C943FEF749FBA060BF491090FEF73E
:101FA000C9FA0399FEF76DFA06461790BA482399C5
:101FB000FEF7B8FA31461C90FEF7BCFA0C90B64911
:101FC0001298FEF7B7FA0299FEF75BFA06461690EA
:101FD000B1482299FEF7A6FA31461290FEF7AAFA06
:101FE0000590AD493846FEF7A5FA0199FEF749FA82
:101FF00006461590A8492846FEF798FA31461B90E8
:10200000FEF798FA0646A4491898FEF793FA009945
:10201000FEF737FAA0491490FEF78CFA3146FEF726
:1020200030FA0599FEF72DFA0C99FEF72AFA0021ED
:10203000C943FEF7FAFAE060059017991298FEF787
:1020400079FA07469449169E2398FEF71AFA314604
:102050001A90FEF76FFA0C908F491598FEF76AFAFE
:1020600013908D492846149EFEF70BFA054631461B
:10207000FEF760FA1399FEF704FA0C99FEF701FADD
:102080003946FEF7FEF90021C943FEF7CEFA20617A
:10209000139028461799FEF74DFA12907E4916982C
:1020A000FEF748FA064615991C98FEF743FA0746CC
:1020B0007949149D2298FEF7E4F929461D90FEF710
:1020C00039FA3946FEF7DDF93146FEF7DAF91299A9
:1020D000FEF7D7F90021C943FEF7A7FA6061069021
:1020E0006D491798FEF726FA074616991B98FEF7D2
:1020F00021FA064615991D98FEF71CFA0546149913
:102100001A98FEF717FA2946FEF7BBF93146FEF793
:10211000B8F93946FEF7B5F90021C943FEF785FA4B
:10212000A0610C9001211898FEF77FFA0446012166
:102130001998FEF77AFA0799FEF7A3F92146FEF7F8
:10214000A0F90599FEF79DF9FEF7C8FC0022534B54
:10215000FEF72AFB04460E460098FEF7BFFC224617
:102160003346FEF76FFAFEF7F5FC4A490746803919
:10217000886301210898FEF758FA464C064601216B
:10218000803C0F98FEF751FA0499FEF77AF9314630
:10219000FEF777F91399FEF774F9FEF79FFC00221A
:1021A0003E4BFEF701FB05460E460198FEF796FCF6
:1021B00033462A46FEF746FAFEF7CCFC0646E063B5
:1021C00001210D98FEF731FA054601210E98FEF720
:1021D0002CFA0A99FEF755F92946FEF752F90699A5
:1021E000FEF74FF9FEF77AFC00222C4BFEF7DCFAE3
:1021F000054601910298FEF771FC2A46019BFEF705
:1022000021FAFEF7A7FC0546206401211098FEF78D
:102210000CFA009001210998FEF707FA0B99FEF7D6
:1022200030F90099FEF72DF90C99FEF72AF9FEF71F
:1022300055FC0022194BFEF7B7FA00900191039864
:10224000FEF74CFC019B009AFEF7FCF9FEF782FCBE
:1022500001466064FEF76EF9294601900846FEF7D4
:1022600069F9054631460846FEF764F906463946DF
:102270000846FEF75FF93146FEF703F92946FEF7F7
:1022800000F90199FEF7FDF80FF04CFA064607E059
:1022900052499D3B8802002052491D3CE3365A3F7B
:1022A0000146A06BFEF746F9A06301903146E06B52
:1022B000FEF740F90746E0633146206CFEF73AF935
:1022C000054620643146606CFEF734F906466064CA
:1022D00001210198FEF7A9F92946FEF72BF90546D9
:1022E000032189073846FEF725F93146FEF722F922
:1022F0002946FEF7C6F8FEF7F1FB0DF041FA434A16
:10230000434BFEF751FAFEF725FC30990860206C2C
:1023100001210546FEF789F929460490FEF70AF9DE
:102320000546E06B032189070746FEF703F93946A6
:10233000FEF700F92946FEF7F5F87F21C905FEF7FB
:10234000A0F8FEF7CBFB05460E460121A06BFEF779
:102350006CF93946FEF7EEF807460498616CFEF713
:10236000E9F83946FEF78DF8FEF7B8FB33462A4602
:102370000EF078FC274E254A3346FEF715FAFEF795
:10238000E9FB2F990860616C00910846FEF7D2F8CE
:102390000590216C04910846FEF7CCF8E16B0746E6
:1023A00008460191FEF7C6F8A16B05460846029162
:1023B000FEF7C0F82946FEF764F83946FEF7B2F892
:1023C0000599FEF7AFF8FEF789FB04460D46009924
:1023D0000298FEF7AFF8074604990198FEF7AAF8AD
:1023E0003946FEF74EF80121FEF71FF9FEF776FB9E
:1023F00022462B460EF036FC044A3346FEF7D4F94B
:10240000FEF7A8FB3199086025B0F0BD66666666E8
:1024100066A64CC066A64C40F7B523498022C97A0F
:10242000214B511ACDB2997ADB7A8026F31A0A46EB
:10243000DEB2871E491C0124C9B2761E3B000CF097
:1024400024F809060C060C120C06062B3000164B5D
:10245000AA4224D2154CA05403E0134BB24215DB20
:102460001DE099720DE0104EAD1EAA4217DA0F4B17
:10247000985401985854491CC8B202991954401CE8
:10248000B072002408480121417208E0074CA054B2
:1024900001986054491CE4E7034BAA42F6D3204656
:1024A000FEBD0220FEBD00005C040020A21800203A
:1024B00010B586B014216846FDF7D1FE0D48C26AFA
:1024C00001210A43C262C06A052408400590042025
:1024D0000090002002900320019124070390694698
:1024E000204601F0A1FF01220421204602F063F8FA
:1024F00006B010BD0010024000B50B4887B0C26A9C
:1025000001210A43C262C06A019108400590192066
:102510000002009003200390029105206946000705
:1025200001F082FF07B000BD0010024000B50B486B
:1025300087B0C16A01221143C162C06A6946104076
:1025400005901920000200900320019000200290C5
:102550000520000701F068FF07B000BD0010024031
:1025600000B587B0FFF7A4FF0A48C26A01210A43F9
:10257000C262C06A019108400590192000020090D3
:1025800003200390029105206946000701F04CFFEB
:1025900007B000BD0010024070B50526054636079D
:1025A00000220421304602F006F8012003F012FD5B
:1025B000104C208001220421304601F0FCFF03F082
:1025C000C9FD20880C49098848430C49FDF7A6FD40
:1025D00060806088392148432F21FDF789FDA08064
:1025E0006088392148432F21FDF782FDFEF7DDF990
:1025F000E86070BD7C01002024030020FF0F000074
:1026000001780448024A4368D1540121017070479F
:102610001B1400206C03002010B5034811F092FF3A
:1026200002490020087010BD012600086C0300203C
:1026300010B51248017801290ED100210170104B0C
:1026400042689C5C012C08D00D2C09D00A2C07D0C4
:102650007F2A0DD0521C426010BD4160062009E067
:10266000002AF9D09954416005480FF0E7FF10BDEA
:10267000416004200EF080FD10BD00006C030020BE
:102680001B140020F8B506460F460068FEF726FA30
:10269000044600200D46385EFEF78EF90022054BF9
:1026A000FEF782F822462B46FDF7CCFFFEF752FAE2
:1026B0003060F8BD008076403EB50D4C69466279C9
:1026C0000A70A27D8A70C870606B0BF0F7F90190F8
:1026D000E06B0290607E69464870A07C07F0FEFDCA
:1026E000618CE06B4143081AA16D4018A0653EBDA6
:1026F0005C040020FFB5044689B0002003900890D8
:10270000069021891646002915D00190626904922D
:102710002069002A04D000290FD00A4692B2039201
:10272000002900D00E46E168884215D3039A6168FB
:102730008018081A11E00220E7E722686568135C38
:10274000471CAF4202D3451B6D1C00E03D46525D65
:102750001202921C9A18E1E700200199751807955A
:102760000C994D43854201D2002102E00799FDF703
:10277000BFFCC8B20199884208D9217FCA0700D19D
:1027800006980690880701D5019800E00698002E6B
:102790006AD00499491908186168884264D80027EA
:1027A00098E0039808186168884200D3401A2061B5
:1027B0002189002911D121680E546168401C814291
:1027C00000D8401A2268310A11546168401C8142C5
:1027D00000D8401A6169891C616161680D1AB542AF
:1027E00000D33546B5420DD0B54202D2217F002933
:1027F00008D0002D6AD0217FCA0730D02189002956
:1028000013D019E039460A9A7143891822681018C2
:102810002A46FDF70BFD606940196061079908952C
:10282000002089B2751B039140E02368FF22811EBE
:102830005A542168401E0A546069401960610020A2
:1028400008902189354600292AD120680570216821
:10285000280A487061690220891C616120E08907AB
:102860001ED52189002902D000200DB0F0BD2168BD
:10287000821E8D542268290A431ED15439460A9A71
:1028800071438918226810182A46FDF7CFFC606949
:10289000401960610895A069751B401CA061D4E7D0
:1028A0000199691889B2039100212161002D0DD091
:1028B000089A0A993B4689182268734310185918D8
:1028C0002A46FDF7B3FC606940196061A069401CAD
:1028D0007F1CA0610C982169874200D261E70198B2
:1028E00008186168884200D3401A21684018BCE784
:1028F00010B5029C01600021C1600161416142602C
:10290000816103810477A00703D5002B01D0481E05
:1029100010BD002010BD0000F0B503890022002B7F
:1029200009D0002300240C804469002C58D002896F
:10293000002A02D00DE00223F4E7C268046846686A
:10294000A55C571CB74200D3921B521CA25C12021A
:10295000AA1894B20C80027FD50729D0920727D4F9
:10296000204A944202D10289002A0AD0C46802692E
:1029700094421DD90289002A1AD045682C1B944222
:1029800016D24468C2684569A21AAA1A4261002296
:10299000C2600289002A0AD10268012C157802D887
:1029A0006442641C00E00124125D1202AA180A802D
:1029B000C5684468EA18A24200D3121B06680F8853
:1029C00092194669FF18F61B466106D009886918F6
:1029D000C918A14200D3091BC1608169491E8161E8
:1029E0001046F0BDFFFF0000F0B503890022002B68
:1029F0000AD0002700230B804369002B42D00389B3
:102A0000C268002B02D00DE00227F3E70568446896
:102A1000531CAE5CA342134600D31B1B5B1CEB5C38
:102A20001B02F3189CB20C80037FDD0723D09B07A9
:102A300021D4154B9C4202D10389002B0AD0C468D3
:102A400003699C4217D90389002B14D045682C1BBD
:102A50009C4210D200221B041B0C0BD1436804685B
:102A6000012B02D85B425B1C00E00123E35C24786D
:102A70001B021B190B80D1194268914200D3891A9D
:102A800000680A181046F0BDFFFF0000FFB50020E7
:102A900085B000900546064601900024770007980F
:102AA0000121C05BA14008422FD028190C220390BD
:102AB0005043089A1258002A27D0059A002A01D1BB
:102AC000490722D00899411808200291085602119E
:102AD00000070117069840B207F03BFE002814D00B
:102AE0000298407A01010E980818C068002804D0A6
:102AF0000198401CC0B2019007E0009A0F9903981A
:102B000088540098401CC0B20090641CE4B2102CA1
:102B1000C5D31035761CEDB2F6B2102DBDD3109989
:102B200001980870009809B0F0BD000030B50A4C5B
:102B300003680A4DA34205D90B68AB4202DD138836
:102B40005B1C13800068A84205DD0868A04202D91A
:102B50001088401E108030BD00002AC300002A43A8
:102B600030B587B014216846FDF779FB032001904A
:102B70000020029003204003104C0090E06A0121E5
:102B80000843E062E06A08400590052069460007B6
:102B900001F04AFCE06A40084000E062606B0125F9
:102BA000AD052843606301F0F7F801F005F901F085
:102BB000FBF8606BA843606307B030BD00100240B3
:102BC00010B511F061FC10BD10B504686360836836
:102BD000102B036803D099600068C26010BD9A6032
:102BE0000068C16010BD10B503F054FB10BD0000BB
:102BF000034800680349020CCA700881704700004E
:102C0000540008087403002010B507480122C17859
:102C100000890904014304480C300160014603485F
:102C200000F006F810BD00007403002054000808EE
:102C3000F7B5174600260546EFF3108472B601F08B
:102C40002FFB0DE00198B10042582946022001F007
:102C5000FDFA00280BD084F3108806A00BF02EF8A4
:102C6000BE42EFDB01F0E8FA84F31088FEBD2D1DB3
:102C7000761CF5E76572726F7220696E20454550CB
:102C8000524F4D205772697465206572726F720DD4
:102C90000000000010B5012001F0BAFB022001F095
:102CA000B7FB10BD10B5042001F0B2FB082001F005
:102CB000AFFB10BD10B5102001F0AAFB202001F0E1
:102CC000A7FB402001F0A4FB802001F0A1FBFF2026
:102CD000013001F09DFB0120400201F099FB012031
:102CE000800201F095FB0120C00201F091FB104C25
:102CF0006069C00403D5A014606101F065FB012088
:102D0000400301F085FB606940040BD50948007859
:102D1000002802D00849012008700120800360616A
:102D200001F052FB0120C00301F072FB10BD000056
:102D300000040140910100202803002070B51248D2
:102D400086B0C16A02242143C162C06A104E20408D
:102D5000059060030D4D0090019502946946304640
:102D600001F062FBE0020090694601950294304652
:102D700001F05AFB00220221072001F063FC07202A
:102D800001F056FC06B070BD00100240000031108A
:102D900000040050FEE7000010B5084900224A6117
:102DA00007494B684C1523434B604B680824234369
:102DB0004B60C009C001026010BD00003810002047
:102DC0000020024010B5214A00219069C305204827
:102DD00004D54169022319434161911593699B050B
:102DE00005D5436901242343436163021943936971
:102DF0005B0505D54369082423434361E301194377
:102E000093691B0505D54369042423434361630289
:102E1000194393699B0405D54369102423434361F7
:102E20006302194393699B0304D5446920231C431F
:102E3000446119439369DB0305D543694024234367
:102E40004361A0020143916110BD000000200240D7
:102E50003810002070B5054601F0B4FB0646184C4A
:102E60000AE0681C08D0002D04D001F0ABFB801BE9
:102E7000A84201D9032070BDA069C007F1D1A069A3
:102E8000800701D50220A061A069C00511D4A06906
:102E900080050ED4A06940050BD4A069000508D4B4
:102EA000A069800405D4A069800302D4A069C0038E
:102EB00003D5FFF787FF012070BD002070BD000023
:102EC0000020024010B5044601F060FA08490020D5
:102ED00011C1012008600749054801F0F3F90028F5
:102EE00003D005A00AF0EAFEFBE701F027FA10BDC7
:102EF000A8060020200000206572726F7220696EA3
:102F0000204572617365206F7065726174696F6EC0
:102F10000A0D0000F8B516460F460446002501F0DC
:102F200035FA0DE0A8003A582146022001F010FAC7
:102F3000002803D005A00AF0C1FEFBE7241D6D1C8C
:102F4000B542EFDB01F0FAF9F8BD00006572726F6F
:102F50007220696E205772697465206F70657261A6
:102F600074696F6E0A0D000070B50D46044601F0DD
:102F70000DFA21462A46022001F0EAF9002803D082
:102F800003A00AF09BFEFBE701F0D8F970BD00003A
:102F90006572726F7220696E205772697465206F56
:102FA0007065726174696F6E0A0D000001680248F5
:102FB000416040687047000020000020F8B5002004
:102FC000084D044607462602A95D012904D170195F
:102FD000401C00F097F8AF55641CE4B2062CF2D305
:102FE000F8BD00008C09002010B5FFF7E7FF054889
:102FF000C078022801D0032803D1024900204039BB
:10300000886310BDF406002070B50E4CA07900282E
:1030100001D0002070BD0120A07100F03FF80A4DE2
:1030200000220821284601F0C6FA00221021284675
:1030300001F0C1FA01222021284601F0BCFAA07952
:1030400070BD0000280000200004005070B5114839
:1030500086B0C26A02210A43C262C06A03240840E1
:103060000590082000256A4631C20B4E694630465D
:1030700001F0DAF910206A4631C26946304601F0A3
:10308000D3F920206A4631C26946304601F0CCF9B6
:1030900006B070BD001002400004005070B5164824
:1030A00086B0C26A02210A43C262C06A0124084093
:1030B00005900820114E0325009001946946039560
:1030C0000294304601F0B0F9102000900194694656
:1030D00003950294304601F0A7F920200090019456
:1030E000694603950294304601F09EF90449002098
:1030F000887106B070BD000000100240000400504E
:1031000028000020F0B5014691B0401C02900978DB
:10311000242909D102AA2A2110F09EFD0446029911
:103120000EF00CF8012802D0002011B0F0BD2046AE
:1031300002AA2C21029410F08FFDFEA10390FDF74E
:10314000ADF8002805D1FD4901200870FC49002098
:103150000870FCA10398FDF7A1F8FC4C2146103142
:103160000F1F0191083908911031264606911C362F
:10317000091F351D0591002829D0F5A10398FDF7F9
:103180008DF800287ED0F4A10398FDF787F8264635
:103190003146603140360791002874D0F0A1039881
:1031A000FDF77CF80028F8D0EFA10398FDF776F83A
:1031B000002869D0EEA10398FDF770F800287CD0B4
:1031C000EDA10398FDF76AF80028F8D056E302AAAB
:1031D0002C21029810F040FD0390002812D00146E7
:1031E0001422E748FDF771F800280BD00097221D44
:1031F000E4A1089B0398FDF781F81422E0480399A5
:10320000FDF738F802AA2C21029810F025FD0028BD
:1032100004D0007841287DD00020207002AA2C2103
:10322000029810F019FD002837D009A900910CABC5
:103230000BAAD8A1FDF762F80998FDF7ABFBFDF7E3
:103240004DFC0022D64BFDF717FB0A9003910C981A
:10325000FDF7A0FBFDF742FC0022D24BFDF70CFB73
:10326000074607910B98FDF795FBFDF737FC3A46AB
:10327000079BFDF7E7F9039B0A9AFDF7E3F9FDF7D2
:1032800069FC02E08CE02BE14DE22062FDF726FCB8
:1032900002460B46C4A00AF011FD02AA2C21029896
:1032A00010F0DAFC002804D00078532800D04E201B
:1032B000287102AA2C21029800E09AE210F0CCFCBE
:1032C000002835D010A900910FAB0EAABAA1FDF7C6
:1032D00015F81098FDF75EFBFDF700FC0022B04BDF
:1032E000FDF7CAFA009007910F98FDF753FBFDF721
:1032F000F5FB0022AB4BFDF7BFFA074603910E9892
:10330000FDF748FBFDF7EAFB3A46039BFDF79AF908
:10331000079B00E042E0009AFDF794F9FDF71AFCE4
:10332000A062FDF7DBFB02460B469FA00AF0C6FC3D
:1033300002AA2C21029810F08FFC002804D00078FB
:10334000572800D04520287302AA2C21029810F09B
:1033500083FC00280AD00FF0B1F8FDF7BFFB994AB3
:10336000994BFDF721FAFDF7F5FB206302AA2C210A
:10337000029810F071FC002802D00FF09FF86063F3
:1033800002AA2C21029810F067FC002805D00096B4
:103390008EA1069B059AFCF7B1FF6FE201203CE786
:1033A00002AA2C21029810F057FC0390002812D09A
:1033B000014614227248FCF788FF00280BD00097C2
:1033C000221D70A1089B0398FCF798FF14226C48FB
:1033D0000399FCF74FFF02AA2C21029810F03CFC45
:1033E000002804D00078412878D00020207002AA5C
:1033F0002C21029810F030FC00282CD009A9009153
:103400000CAB0BAA63A1FCF779FF0998FDF7C2FA90
:10341000FDF764FB0022624BFDF72EFA07910A903C
:103420000C98FDF7B7FAFDF759FB00225D4BFDF74D
:1034300023FA074603910B98FDF7ACFAFDF74EFB14
:103440003A46039BFDF7FEF8079B0A9AFDF7FAF848
:10345000FDF780FB206202AA2C21029810F0FCFBF1
:10346000002804D00078532800D04E20287102AAEA
:103470002C21029810F0F0FB002800D158E710A989
:1034800000910FAB0EAA4CA1FCF738FF1098FDF786
:1034900081FAFDF723FB0022414BFDF7EDF90A907D
:1034A00007910F98FDF776FAFDF718FB00223D4BC8
:1034B000FDF7E2F9074603910E98FDF76BFAFDF769
:1034C0000DFB3A46039BFDF7BDF8079B0A9AFDF7F3
:1034D000B9F8FDF73FFBA0622AE7FFE7012085E787
:1034E00002AA2C21029810F0B7FB0390002812D0FA
:1034F000014614222248FCF7E8FE00280BD0009772
:10350000221D20A1089B0398FCF7F8FE14221C48FA
:103510000399FCF7AFFE02AA2C21029810F09CFB45
:1035200000287DD00FA900910EAB0DAA19A1FCF7C0
:10353000E5FE51E0504D544B303031008E010020FB
:1035400028000020474E52524D430000B406002090
:103550004750524D4300000047504747410000008C
:10356000474E474741000000475047535600000070
:103570004750475341000000474E47534100000069
:10358000780900202532642532642532642E2534E2
:10359000640000002532642532642E253464000066
:1035A000804F224100004E4025733A20252E36667A
:1035B000B6C80A0D000000002533642532642E25AC
:1035C000346400006F1283C0CAA1FD3F2532642518
:1035D00032642532640000000F98FDF7DBF9FDF737
:1035E0007DFA0022AC4BFDF747F900910A900E9846
:1035F000FDF7D0F9FDF772FA0022A84BFDF73CF970
:10360000074601910D98FDF7C5F9FDF767FA3A46AF
:10361000019BFDF717F8009B0A9AFDF713F800E0ED
:1036200002E0FDF797FA206202AA2C21029810F01E
:1036300013FB002804D00078532800D04E202871B6
:1036400002AA2C21029810F007FB00282CD00FA909
:1036500000910EAB0DAA9249FCF750FE0F98FDF7B2
:1036600099F9FDF73BFA00228B4BFDF705F9039121
:1036700008900E98FDF78EF9FDF730FA0022874B7F
:10368000FDF7FAF8074600910D98FDF783F9FDF76D
:1036900025FA3A46009BFCF7D5FF039B089AFCF7F6
:1036A000D1FFFDF757FAA06202AA2C21029810F070
:1036B000D3FA002804D00078572800D0452028737A
:1036C00002AA2C21029810F0C7FA002802D00EF0AE
:1036D000FAFE707002AA2C21029810F0BDFA0028A0
:1036E00003D00EF0F0FE0799887002AA2C210298F0
:1036F00010F0B2FA002802D00EF0E0FEA06402AA98
:103700002C21029810F0A8FA002802D00EF0D6FE64
:10371000E06302AA2C21029810F09EFA002801D042
:1037200000783070AAE002AA2C21029810F094FAD6
:10373000002803D00EF0C7FE5A49487002AA2C2177
:10374000029810F089FA002803D00EF0BCFE55490B
:103750008870544DA878012801D10020E87002AA91
:103760002C21029810F078FA002803D00EF0ABFE5E
:103770000799C870002602AA2C21029810F06CFA52
:10378000002805D00EF09FFEE97809010919486666
:1037900002AA2C21029810F05FFA002805D00EF042
:1037A00092FEE97809010919886602AA2C2102987B
:1037B00010F052FA002805D00EF085FEE9780901D4
:1037C0000919C86602AA2C21029810F045FA0700D0
:1037D00005D00EF078FEE978090109190867E87844
:1037E000401CE870002F49D0761CF6B2042EC2D3DC
:1037F00044E002AA2C21029810F02EFA002802D0F0
:103800000EF061FEB07002AA2C21029810F024FA8A
:10381000002802D00EF057FEF070002502AA2C21DD
:10382000029810F019FA002804D00EF04CFE61192D
:10383000403188756D1CEDB20C2DEFD302AA2C21FE
:10384000029810F009FA002804D00EF037FE15494E
:103850006064086102AA2C21029810F0FDF900288A
:1038600002D00EF02BFEA06402AA2C21029810F0C8
:10387000F3F9002802D00EF021FEE0640A49206A24
:10388000884201DD002020620849A06A884201DDEB
:103890000020A062012048E4804F224100004E40F9
:1038A000B8350008280000200000B442000034436E
:1038B00030B519498A68012A1DD00C4625790023A4
:1038C000164A2C02242817D04D79FE2D04D2A418B4
:1038D000641960706D1C4D71C868401CC860FF2879
:1038E00009D10879000213548218487912185370CC
:1038F000401C4871CB6030BD012010556D1CECB2EE
:103900000C71052C00D90B710C7924252402135558
:10391000A41865704871DFE7280000208C0900209A
:103920000649800009580648091803D0C14203D04F
:10393000002070470120704702207047384D010871
:10394000702FFCFF10B5094A0021CB00D4588442E7
:1039500007D89B189B68834203D9C8008018007958
:1039600010BD491CC9B21529EFD3FEE7384601083E
:10397000F8B5054604464035287D0026012808D0C4
:1039800001202875206881688907890F01290ED1D7
:1039900001E00220F8BD0168C90708D0A06D202110
:1039A0000843A0650126002028753046F8BDA16DAA
:1039B000FF220132914302221143A165C1688907A8
:1039C000890F0091C16889088900C16020688168F9
:1039D00092071143816000F0F5FD07460EE000F00C
:1039E000F1FDC01B0A2809D9A06D022188431021CE
:1039F0000843A065002028750120F8BD2068806874
:103A00000028ECDB2068C168009A1143C160A06DFA
:103A100080088000401CA065C5E70000F8B5064698
:103A20000D464036317D01290DD0012131750168E7
:103A30008A68520709D5816D2022114381650020D3
:103A400030750120F8BD0220F8BD174B6A68D80513
:103A500047109A42154C8A6A2B6812D05B035B0BA5
:103A60001A438A622968490305D5A1680143A16008
:103A70000A20FDF775FC2868800312D5A06838433A
:103A80000EE05B035B0B9A438A622968490302D507
:103A9000A1688143A1602868800302D5A068B8436B
:103AA000A06000203075F8BD011000000027014023
:103AB0000068006C7047000070B5040006D0A06D6F
:103AC000264600254036002802D006E0012070BDC1
:103AD000E5653575204600F0D1F8A06DC00603D429
:103AE00021688868400705D5A06D10210843A065AE
:103AF0003575EBE7A06DFF2201329043022210439F
:103B0000A06588688207920F5A48012A02D10A6884
:103B1000D2072BD1032362689B079A4205D05B42F0
:103B20009A4202D05B009A4209D10A699200920837
:103B30000A6121680A6963681A430A610CE00A692C
:103B4000920092080A6181680F2292049143816079
:103B500081686268114381602168CA6818239A43AA
:103B6000CA602168CA68A3681A43CA6081680122D2
:103B70005206914381608168228F52061143816011
:103B800020688168C90004D48168012212071143AA
:103B900081602068C168384A1140C1602169E068CD
:103BA000022923D000210843216A226B49035200D5
:103BB00011430843616B0843A16989030843E16924
:103BC000C90308432168CA681043C860A06A014657
:103BD000FF39C23905D0E16A08432168CA68104339
:103BE000C860606A0121012802D00BE00421DAE7F5
:103BF000206A002823D0A06D20221043A065E06D2C
:103C00000843E065206C012820681FD00169C907BE
:103C100003D0016949084900016120684169C90868
:103C2000C900416120684169E26B11434161E5656A
:103C3000A06D80088000401CA065002070BD206839
:103C4000C26801231B041A43C260DBE70269FF2339
:103C50009B009A43026120680269636CE66C1A4318
:103C6000A36C33431A430261206802690A4302616C
:103C7000D3E70000002701401902FEFF7047F8B5A6
:103C800004464069254640350E4608280BD020687A
:103C9000C068C00709D0A06D20210843A06500209E
:103CA00028750120F8BD082700E00C2700F08AFCE9
:103CB000009011E0701C0FD0002E05D000F082FCA7
:103CC0000099401AB04207D9A06D04210843A065AD
:103CD000002028750320F8BD206800683842E9D02C
:103CE000A06D012149020843A0652068C16809054B
:103CF0008A0F0C21002A1AD1226A002A17D10268E1
:103D0000120714D5826853070122002B08DB436891
:103D10008B434360A06D130298431043A06506E0F7
:103D2000A06D20231843A065E06D1043E065A069F5
:103D3000002801D1206801600020F8BD70B504465C
:103D4000216800208968490721D425464035297D0E
:103D500001291CD001212975E169012904D02046DF
:103D6000FDF710FB002811D1A16D0A4A1140FF2276
:103D700001321143A1650021E165297522681C21EA
:103D8000116021688A6804231A438A6070BD02208A
:103D900070BD0000FEF1FFFF02484168490849007C
:103DA0004160704700580140024841680422914335
:103DB0004160704700580140024841680222914327
:103DC000416070470058014070B50024024620321F
:103DD0005179022903D00421C16301243CE0016828
:103DE0000B680E25AB430B6001680B685B085B003A
:103DF0000B601A4B0168994201D1012121E0174B58
:103E00001433994201D110211BE0144B28339942FD
:103E100001D1891515E0114B3C33994201D1891428
:103E20000FE00E4B5033994202D10121090408E002
:103E30000A4B6433994202D10121090501E00121B5
:103E40000906064B083B596001215171002111718F
:103E5000816B002900D08847204670BD08000240D1
:103E6000F8B504469D4801689C4A9C4E9B4F083219
:103E7000206813041C363037904201D108221EE01E
:103E8000B04201D180221AE0B84202D10122D2020E
:103E900015E0924A4432904202D10122D2030EE050
:103EA0008E4A5832904201D11A4608E08B4A6C3251
:103EB000904202D10122D20501E00122D20625461C
:103EC0001140203500293BD00168090738D5016829
:103ED000082291430160814920680831884201D15C
:103EE00008201EE0B04201D180201AE0B84202D181
:103EF0000120C00215E079494431884202D10120F5
:103F0000C0030EE075495831884201D1184608E0D7
:103F100072496C31884202D10120C00501E00120C4
:103F2000C0066E494860E06B01210843E06304204D
:103F3000687100202871616B002901D020468847F4
:103F400066480168654A206808321315904201D11D
:103F500004221EE0B04201D140221AE0B84201D151
:103F60001A4616E05D4A4432904202D10122920381
:103F70000FE05A4A5832904202D10122920408E0DE
:103F8000564A6C32904202D10122920501E0012290
:103F90009206114238D00168490735D50168890673
:103FA00003D4026804218A4302604C492068083126
:103FB000884201D104201EE0B04201D140201AE025
:103FC000B84201D1184616E044494431884202D132
:103FD000012080030FE041495831884202D101207D
:103FE000800408E03D496C31884202D101208005FF
:103FF00001E0012080063949486005206871216B85
:10400000002901D02046884734480168334A206897
:1040100008325315904201D102221EE0B04201D174
:1040200020221AE0B84201D11A4616E02B4A443247
:10403000904202D1012252030FE0284A58329042A6
:1040400002D10122520408E0244A6C32904202D18B
:104050000122520501E00122520611423CD00168C2
:10406000890739D50168890603D401680222914382
:1040700001601A4920680831884201D102201EE0FF
:10408000B04201D120201AE0B84201D1184616E012
:1040900012494431884202D1012040030FE00F4908
:1040A0005831884202D10120400408E00B496C31AC
:1040B000884202D10120400501E001204006074965
:1040C0004860E06BE0630120687100202871E16ABC
:1040D000002901D020468847F8BD000000000240BA
:1040E00070B5002805D0034620335979002902D045
:1040F00003E0012070BD002119710221597104688B
:1041000022683749C5680A408168466929430569BC
:104110003543294385692943C5692943056A2943EC
:10412000114321602F492F4C02687831A24206D1F9
:104130008A6A120912018A628A6A406849E0294C37
:104140001434A24207D18A6AF024A2438A628A6A9E
:10415000406800013DE0234C2834A24208D18A6A1D
:104160000F242402A2438A628A6A4068000230E077
:104170001C4C3C34A24208D18A6A0F242403A24377
:104180008A628A6A4068000323E0164C5034A242D7
:1041900008D18A6A0F242404A2438A628A6A80882A
:1041A000000416E00F4C6434A24208D18A6A0F243E
:1041B0002405A2438A628A6A8088000509E08A424F
:1041C00009D18A6A0F242406A2438A628A6A007986
:1041D000000602438A6201205871002070BD000071
:1041E0000FC0FFFF08000240F8B5044620300579F3
:1041F000012D1ED001250571022646712068076831
:10420000AF4307602046FEF7DFFC206801683143BA
:104210000160206801680422114301602068016880
:1042200008221143016020680168294301600020D1
:10423000F8BD0220F8BD0000034841680122114387
:10424000416000207047000000200240F8B5124D88
:104250000746287C14460E46012807D00120287402
:104260000E48FEF7F7FD002802D00CE00220F8BD52
:1042700000216961022F09D0012F09D0002F09D038
:104280000648FEF7E7FD00212974F8BD3460FAE71F
:104290003480F8E73470F6E73810002050C300008F
:1042A00005484168C90705D00449C1600449C16097
:1042B000002070470120704700200240EFCDAB89FD
:1042C00005040302F8B51A4E0546307C0F46012856
:1042D00007D0012030741748FEF7BCFD010002D062
:1042E00021E00220F8BD0020C04338606C6814E073
:1042F0002046FEF751FD0F48FEF7ACFD01460E4883
:10430000426808239A434260426843159A434260D8
:10431000002901D03C6006E08034A8686A68C001CA
:104320008018A042E4D8002030740846F8BD000090
:104330003810002050C300000020024003484168AC
:10434000022211434160002070470000002002401B
:10435000F8B50C4C1646207C0F46012808D00120E9
:1043600020740948FEF776FD0025002802D006E0FB
:104370000220F8BD65613E600348FEF76BFD2574C1
:10438000F8BD00003810002050C300000948416803
:1043900089070CD54168C90703D00749C16007499F
:1043A000C160074901610749016100207047012090
:1043B0007047000000200240EFCDAB8905040302E6
:1043C000BFAE9D8C1615141310B5044601F092FE75
:1043D00001200003844211D10948007800280DD043
:1043E00008480068002809D007480078012805D14E
:1043F00006480068002801D104F0D4F810BD000080
:1044000091010020500300208C010020B001002009
:1044100010B504494A69024202D04861FFF7D4FF4F
:1044200010BD000000040140F8B500230124A7E0FE
:1044300027469F403A4070D04D68022D01D0122D82
:1044400014D1DD08AD002D1800952D6A5E07AC462D
:10445000F50E0F26AE46AE406546B543AC460E6936
:104460007546AE4065462E43009D2E624D68012D77
:1044700005D0022D03D0112D01D0122D16D1856843
:104480000326AC465D00AE46AE406546B543AC463D
:10449000CE687546AE4065462E43866046680D7907
:1044A000BE43ED06ED0F9D403543456006685F0055
:1044B0000325BD40AE46AE430D79B446AE07B60FF8
:1044C000BE4065462E430660C6687546AE438D689D
:1044D000BD403543C5604D68ED0050D52B4D6E6B2A
:1044E00026436E639E082A4DB6007519AC46AD682A
:1044F0009E07360F0F27B740BD4305273F07B84239
:1045000001D100271AE0234FB84201D1012715E05D
:10451000214FB84202D1022710E030E01F4FB842CD
:1045200001D103270AE01E4FB84201D1042705E05C
:104530001C4FB84201D1052700E00627B7402F43A2
:104540006546AF60184D2E684F689643FF0300D54F
:1045500016432E606E684F689643BF0300D516431E
:104560006E60AE684F689643FF0200D51643AE609A
:10457000EE684F689643BF0200D51643EE605B1CA1
:104580000A681546DD4000D052E7F8BD0010024031
:10459000000001400004005000080050000C0050D2
:1045A00000100050001C0050000401400069084049
:1045B00000D001207047002A01D0816170478162DC
:1045C0007047000001480068704700007801002033
:1045D00002480168491C0160704700007801002012
:1045E00010B506480168022211430160032000F063
:1045F00007F800F007F8002010BD0000002002407E
:104600000020704710B50848816B02041143816394
:1046100000F02CF800F022F8044801680822114349
:10462000016000F013F810BD0010024000200240AD
:10463000C106C90E0120884001490860704700008A
:1046400000E100E010B504F06BFA10BD024801680B
:104650000215114301607047007000400248016874
:104660004215114301607047007000400248016824
:10467000102291430160704700700040094B1A6896
:104680009208920002431A600748026904239A4381
:104690000261012903D040BF20BF20BF704730BF57
:1046A000704700000070004000ED00E00A4B1A68FF
:1046B0009208920002431A600848036904221343D7
:1046C0000361012906D040BF20BF20BF016991438B
:1046D0000161704730BFF9E70070004000ED00E075
:1046E000F8B56649074601250020ED03624B634A91
:1046F0004031102F6FD011DC012F77D0022F6CD0FA
:10470000042F6BD0082F24D1C9680324240321402F
:104710007BD0BD026C10A9427CD0A0E00326584C8F
:104720003604202F0BD0402F35D0FF3F012F10D162
:10473000C968314069D07C04A1426BD096E00B6916
:104740000969012731403F04B94203D1990559E075
:104750002846F8BD01256D04A94203D19907F8D573
:104760004848F8BDB142FCD111688903F9D51168F8
:1047700003200005014001200005091A09D0091A8B
:1047800005D0814201D14048F8BD2046F8BD3F48E0
:10479000F8BD3F48F8BDC9680125AD06294006D0DF
:1047A000A942F7D191688907F4D53A48F8BD116854
:1047B0008901FBD5D068D1688002374D000F2D5C90
:1047C0000802810FD068491CC0030AD41068C006D3
:1047D00005D5204606E045E008E023E030E0184635
:1047E00000E02E486843FBF783FCF8BDCC68A407C3
:1047F000A40F0CD0022C0DD0012C10D0032CF4D11E
:10480000096989050029A3DBF8BD16E002E000F084
:10481000D1F9F9E711684907F6D51846F4E700F031
:10482000D9F9F1E7CC680C26344006D0082CF1D039
:10483000042CF4D00C2CE3D0E6E700F0ABF9E3E76E
:10484000CC680326B6023440F7D00127FF02BC42F1
:10485000E0D07A109442E2D0B442D1D0D4E7A14261
:10486000DDD0D1E7916B4902E7D4CDE701221204F4
:104870009142D4D0C8E700000024F40000100240A8
:1048800000093D008890000020A1070040420F0071
:1048900080841E00006CDC026047010800127A0070
:1048A000F8B5044600785E4D800672D55C4E002750
:1048B000403EB06BC00004D4B06BA9050843B063A0
:1048C000012758480168C90511D4016882151143B0
:1048D0000160FFF777FE009005E0FFF773FE009997
:1048E000401A642837D84F480068C005F5D53268AB
:1048F0000321090560680A400140914208D0810304
:10490000890F032904D13168890301D50120F8BD3D
:104910002A69032109040A4022D0084090421FD08E
:10492000207880061CD528692A6988430121C9049A
:104930000A432A612A698A432A612861C0050FD582
:10494000FFF740FE009008E0FFF73CFE0099411A97
:104950003548814201D90320F8BD28698005F3D587
:1049600061688803800F032805D1326800058243FF
:1049700001400A4332602869032261681204114031
:1049800008432861002F04D0B06B01210907884338
:10499000B0632078C00705D0E868A168800880006F
:1049A0000843E8602078800705D5E8680C21884333
:1049B000E1680843E8602078400706D5E8680321ED
:1049C0008902884321690843E8602078000706D5FA
:1049D000E86803210903884361690843E860208887
:1049E000C00506D5E868032109048843A169084386
:1049F000E8602078400606D5E868012189068843EA
:104A0000216A0843E8602078000606D5E86803219B
:104A100089048843E1690843E8600020F8BD00008C
:104A2000401002400070004088130000F8B50546B1
:104A300053480E460068C007C00FB0420AD2504823
:104A4000016849084900314301600068C007C00F90
:104A5000B0426FD128784B4C800705D5E068F02133
:104A60008843A9680843E0602878C00752D0686886
:104A7000022817D0032818D02168012818D08905EA
:104A8000002957DAE168890889000143E160FFF7EE
:104A900099FD69680746022912D003291CD0012913
:104AA00026D033E021688903EAE721688901E7E736
:104AB0004907E5E7FFF786FDC11B3348814223D84C
:104AC000E0680007800F0228F4D123E0FFF77AFDA9
:104AD000C11B2D48814217D8E0680007800F0328CA
:104AE000F4D117E0FFF76EFDC11B274881420BD8B8
:104AF000E0680007800F0128F4D10BE0FFF762FDAA
:104B0000C11B2148814201D90320F8BDE06800079C
:104B1000800FF3D11A480168C907C90FB1420BD9F8
:104B2000016849084900314301600068C007C00FAF
:104B3000B04201D00120F8BD2878400706D5E068D2
:104B4000072109028843E9680843E06028780007E4
:104B500007D5E0680721C90288432969C9000843CD
:104B6000E06000F037F8E168084A0906090F515C77
:104B7000C840074908600320FFF742FD0020F8BD48
:104B80000020024000100240881300005047010836
:104B900074010020044805490068C968044A4905B1
:104BA000490F515CC840704774010020001002405A
:104BB00069470108044805490068C968044A89042E
:104BC000490F515CC840704774010020001002403A
:104BD0006947010810B5184AD1680C20084004281C
:104BE0000BD0082810D00C2810D050680004410FBA
:104BF0000120C003491C884010BD1068C00601D5C3
:104C00000E4810BD0E4810BD0E4810BD88020E4B58
:104C1000000F185C0902D368890F491CDB0301D51A
:104C2000084A05E01268D20601D5044A00E0044AA9
:104C30005043FBF75DFA10BD0010024000093D0033
:104C40000024F40000127A0060470108F8B5044619
:104C50000078FF4DC0074CD0E8680007800F02289D
:104C600007D0E8680007800F032809D1E868C0036F
:104C700006D5286880033CD56068002875D038E0E8
:104C8000012062680004824203D12968014329603F
:104C900011E0052301211B0489049A422A6802D1EC
:104CA0000A432A60F1E782432A602A6802400092A0
:104CB000286888432860606800280DD0FFF782FCD0
:104CC0000646E44F04E0FFF77DFC801BB8427DD828
:104CD00028688003F7D50CE0FFF774FC0646DD4F2B
:104CE00004E0FFF76FFC801BB842F0D8286880030F
:104CF000F7D42078800741D5E8681F270007800F88
:104D00003F02012807D0E8680007800F032809D177
:104D1000E868C00306D42868400717D5E068012872
:104D200023D113E0E068002817D0296809229143B5
:104D300001432960FFF746FC064604E0FFF742FC0A
:104D4000801B0228C3D828684007F7D56868216906
:104D5000B84309020843686010E028684008400032
:104D60002860FFF72FFC064605E090E0FFF72AFCDD
:104D7000801B0228ABD828684007F7D42078C006EB
:104D800076D5E868B44E0007800F0BD0E0690028A4
:104D90005DD02868FF21013108432860FFF712FC2D
:104DA000074644E02868800502D5E06900286ED0F7
:104DB000606A69683140884212D905F0ABF8002872
:104DC000AED16868616AB043084300E0E4E068601F
:104DD0006868218C0002000A0906084368600FE039
:104DE0006968B143014369606868218C0002000A68
:104DF000090608436860606A05F08CF800288FD1C6
:104E0000606A410B0120C003491C8840E968934A4D
:104E10000906090F515CC840914908600320FFF75B
:104E2000EFFB25E0FFF7CEFBC01B02288AD82868DD
:104E30008005F7D56868616AB043084368606868B0
:104E4000218C0002000A09060843686010E0296806
:104E5000FF20013081432960FFF7B4FB064604E0E0
:104E6000FFF7B0FB801B022884D828688005F7D4A0
:104E700020787C4E000723D560690028306910D067
:104E8000012108433061FFF79DFB074605E009E17A
:104E9000FFF798FBC01B02287ED830698007F7D542
:104EA0000EE0400840003061FFF78CFB074604E04D
:104EB000FFF788FBC01B02286ED830698007F7D443
:104EC0002078400761D5A86B0027C00005D4A86BE7
:104ED000012109070843A863012763480168C90540
:104EE00011D40168821511430160FFF76BFB00903C
:104EF00005E0FFF767FB0099401A64284CD85A4830
:104F00000068C005F5D5FF20A2680130824203D1B8
:104F100031690143316111E001218902002A07D082
:104F200005231B029A4203D132690A433261EFE73B
:104F3000326982433261306988433061A068002859
:104F40000ED0FFF73FFB009006E0FFF73BFB009918
:104F5000411A404881421FD830698005F5D50DE0DF
:104F6000FFF730FB009006E0FFF72CFB0099411A99
:104F70003848814210D830698005F5D4002F04D01C
:104F8000A96B012000078143A9632078800630D5F2
:104F90003649A0694A1400E07DE0002816D0AB68CD
:104FA00001200343AB606B6B03436B63086A1043E0
:104FB0000862FFF707FB064604E0FFF703FB801BD0
:104FC000022868D8A8688007F7D512E0A8684008CA
:104FD0004000A860086A90430862FFF7F3FA0646AB
:104FE00004E0FFF7EFFA801B022854D8A868800776
:104FF000F7D4A06A002853D0E9680907890F03296C
:1050000050D0012636060228286805D0B043286013
:10501000FFF7D8FA044640E0B0432860FFF7D2FA21
:10502000074604E0FFF7CEFAC01B022833D82868F1
:105030008001F7D4216BE06AEA680843616BFD23C5
:105040001B049A4311430843E860286830430FE08B
:10505000001002408813000000E0000050470108E3
:105060007401002040100240007000400000014028
:105070002860FFF7A7FA044604E0FFF7A3FA001B35
:10508000022808D828688001F7D509E0FFF79AFAC6
:10509000001B022801D90320F8BD28688001F5D43F
:1050A0000020F8BD0120F8BD30B5014620310A7856
:1050B000012A15D001220A7002234B700468CA230A
:1050C000636204685323636203689C6820252C4351
:1050D0009C600068FF2343624A700020087030BD66
:1050E000022030BD10B508F00BFD10BDF8B5054627
:1050F00004462035287801281DD001202870022080
:1051000068702268CA205062226853205062FF20D3
:1051100001300026FF2781421CD121688A68824322
:105120008A60206881680122120391438160FFF741
:1051300049FA009009E00220F8BDFFF743FA009910
:10514000411A7D20C00081421BD82068C068C0077A
:10515000F3D020E0206881680122520291438160EF
:1051600020688168120191438160FFF72BFA00905B
:105170000DE0FFF727FA0099411A7D20C000814217
:1051800005D920684762032068702E70F8BD20683A
:10519000C0688007EDD520684762012068702E70D6
:1051A0000020F8BD10B500680B464068C021C94317
:1051B00001400002000ECC04D870E40E5C708C0636
:1051C000A40E0904490F9C701970002A0AD104F03A
:1051D000DDFED870587804F0D9FE5870987804F045
:1051E000D5FE9870002010BD30B50B460168896A65
:1051F0005960016809694904490C996000680468AC
:105200000F482146014088024D04800E18706D0E33
:1052100049065D70490E99706102490E4024214093
:10522000D970002A0AD104F0B1FE1870587804F041
:10523000ADFE5870987804F0A9FE9870002030BD3B
:105240007F7F7F0070B5040005D025462035687843
:10525000002802D006E0012070BD00202870204602
:1052600000F042F8022068702168CA204862216874
:1052700053204862204604F09CFEFF21002820684D
:1052800003D0416204206870E5E78268154B1A403C
:105290008260226890686368A66918432369334373
:1052A000184390602268E0681061206802692389D1
:1052B0001B041A4302612068C26880239A43C260BB
:1052C0002068C26C92089200C264E269606902437D
:1052D0002068C36C1A43C264206841620120687070
:1052E000002070BDBFFF8FFF00B597B00420009075
:1052F00000200A90FF20013002906846FFF7A6FCCC
:10530000002801D0FDF746FD20200E90C0020F902E
:105310000EA8FFF7C5FA002801D0FDF73BFD0848AD
:10532000016901229204114301610122002102203E
:10533000FFF788F90220FFF77BF917B000BD0000E6
:1053400040100240FEB506460446203630780B4633
:10535000012842D0012030700220707020681D4664
:10536000002720358068002A39D0400655D51878A6
:1053700004F00CFE287804F009FE197898780904E6
:1053800008435978DA78090212041143084329784E
:1053900009060843D96908435969084305469969CC
:1053A0005868084300902168CA2048622168532049
:1053B0004862FF205A6A0130802182424AD1226825
:1053C0009368834393602268D0680840FF3882382E
:1053D000D060FFF7F7F8019029E00220FEBD4006FB
:1053E00000D4DF70187804F0D9FD0204587804F076
:1053F000D5FD00020243987804F0D0FD0243D8782E
:1054000000040243287804F0C9FD00060243D8696D
:105410000243586902431546C1E7DF70AAE7FFF768
:10542000D1F80199411A7D20C00081422AD8206814
:10543000C068C007F3D02068C5612168009848643F
:1054400020688168FF2201321143816020688168F1
:10545000120130E02068826801235B029A43826077
:105460002068C2680A401D495118C160FFF7AAF8B8
:1054700001900EE0FFF7A6F80199411A7D20C000C7
:10548000814206D92168FF2048620320707037707E
:10549000FEBD2068C0688007ECD5206805622168E1
:1054A000009888642068816801225202114381605B
:1054B0002068816812011143816009480268012156
:1054C00049040A43026082680A4382602168FF201F
:1054D00048620120707037700020FEBD7FFDFFFF25
:1054E00000040140F8B505460446203528780B46EF
:1054F000012815D001202870022068705878002AF1
:1055000010D004F043FD987804F040FDD8789E78E0
:10551000000406435878197800024903084316E04E
:105520000220F8BDC10603D5EF2108400A305870AB
:10553000D87804F033FD0604587804F02FFD0002FB
:105540000643987804F02AFD064318784003064382
:105550002168CA204862216853204862204604F02E
:1055600028FD0027002811D1104806402068466019
:105570002068C16880229143C160206880688006ED
:105580000CD4204600F08CF8002807D02168FF20BA
:105590004862042068702F700120F8BD2168FF2048
:1055A0004862012068702F700020F8BD3FFFFF00A7
:1055B000F8B506460446203630780D4601280ED050
:1055C0000120307002207070206800278068002A57
:1055D00007D040061AD5287804F0D8FC17E002203E
:1055E000F8BD400600D4EF70287804F0D7FC020420
:1055F000687804F0D3FC00020243A87804F0CEFCE3
:105600000243E8780004024300920BE0EF7029782F
:10561000A878090408436978EA780902120411435A
:10562000084300902168CA204862216853204862DC
:10563000204604F0BEFC00281FD1184900980840FD
:10564000216808602068816801229204914381608A
:105650002969E868084321688A68104388602068DF
:10566000C16880229143C1602068806880060CD4A4
:10567000204600F015F8002807D02168FF20486276
:105680000420707037700120F8BD2168FF20486247
:105690000120707037700020F8BD00007F7F7F0010
:1056A00070B504460068C168A0229143C160FEF74E
:1056B00089FF7D260546F60006E0FEF783FF401BC6
:1056C000B04201D9032070BD2068C0688006F4D5BF
:1056D000002070BD70B5040006D025464035687CBA
:1056E0000026002802D005E0012070BD2E7420465F
:1056F00000F032F80220687420680168402291436B
:105700000160A168606822690843E16811430843A9
:10571000616901220843A169520211400843E1690D
:105720000843216A0843A16A084321680860A06908
:105730000421000C0840616A084321684860216820
:10574000E06A08612068C16992009143C1616665A1
:1057500001206874002070BD7047F8B5044600272A
:105760006846078026464036707C012802D0707C4F
:1057700022287ED100290CD0002A0AD0002B08D084
:10578000307C012875D001203074707C012802D053
:1057900003E00120F8BD322070746765A263A3871F
:1057A000E3872163A386E386A764E7640125A06AF3
:1057B0006D03A84207D120680168A94301602068F1
:1057C00001682943016020680168490603D4016823
:1057D0004022114301600121FF20E268C902053027
:1057E0008A42616866D1002904D081420CD1E08EE2
:1057F000012809D1206B21680088C860206B801CBB
:105800002063E08E401EE086E08E002843D1A06A2F
:10581000A84246D1206801680122120311430160A9
:105820003FE02068C068A16B0880A06B801CA0636B
:10583000B0E0002202212046069B05F013FE00285E
:105840007DD1206B21680088C860206B801C20639C
:10585000E08E401EE086E08E002808D1A06AA842B3
:1058600005D1206801680122120311430160002262
:1058700000E0CCE001212046069B05F0F3FD002866
:105880007FD12068C068A16B0880A06B801CA063DA
:10589000E08F401EE087E08E0028CAD160680028B3
:1058A0007BD1002201212046069B05F0DBFD00286C
:1058B00067D1B6E7002904D081420BD1E08E0128E0
:1058C00008D1206B411C216321680078C860E08EFC
:1058D000401EE086E08E002845D1A06AA84205D18E
:1058E0002068016801221203114301600022012196
:1058F0002046069B05F0B6FD002842D12068C0680E
:10590000A16B087046E0002202212046069B05F0AC
:10591000A9FD002835D1206B411C21632168007846
:10592000C860E08E401EE086E08E00280AD1A06AA2
:10593000A84207D1206802680121090300E020E0A5
:105940000A430260002201212046069B05F08AFDE1
:10595000002816D12068C268A06B411CA1630270A8
:10596000E08F401EE087E08E0028CCD160680028E0
:1059700013D1002201212046069B05F073FD00286B
:1059800002D00320F8BD08E02068C168A06B421C6B
:10599000A2630170E08F401EE087A06AA8420FD189
:1059A000002201212046069B05F05CFD002802D064
:1059B000606D02210EE02068C06869460880088892
:1059C000012280212046069B05F04CFD002804D0D2
:1059D000606D202108436065D3E701207074A06AE0
:1059E000A84211D120688168C943C9060CD4616DF1
:1059F0000222114361650168A943016020680168C2
:105A0000294301603774C4E637740020BAE70220E6
:105A1000B8E7014660310A7A012A0DD001220A72E4
:105A200024224A720068026802231A43026020207E
:105A3000487200200872704702207047FEB5054684
:105A400004466035287A00269446012811D00123A7
:105A50002B7224206872206802689A4302602768CB
:105A6000B8680322120590430843B860002902D0A9
:105A700015E00220FEBD60460091019021686A4653
:105A8000928848681027B8431043486020684168EE
:105A90006A4609029279090A120611434160206898
:105AA000016819430160FEF78DFD09490091034625
:105AB000012100228905204608F0EDFB002801D0D5
:105AC000032601E020206872002028723046FEBDC7
:105AD000FFFFFF0170477047F8B502680446D069C0
